{
  "_format": "hh-sol-artifact-1",
  "contractName": "StrataDeedRWA",
  "sourceName": "contracts/StrataDeedRWA.sol",
  "abi": [
    {
      "inputs": [
        {
          "internalType": "uint256",
          "name": "_fundingCap",
          "type": "uint256"
        },
        {
          "internalType": "address",
          "name": "_initialOwner",
          "type": "address"
        }
      ],
      "stateMutability": "nonpayable",
      "type": "constructor"
    },
    {
      "inputs": [
        {
          "internalType": "address",
          "name": "spender",
          "type": "address"
        },
        {
          "internalType": "uint256",
          "name": "allowance",
          "type": "uint256"
        },
        {
          "internalType": "uint256",
          "name": "needed",
          "type": "uint256"
        }
      ],
      "name": "ERC20InsufficientAllowance",
      "type": "error"
    },
    {
      "inputs": [
        {
          "internalType": "address",
          "name": "sender",
          "type": "address"
        },
        {
          "internalType": "uint256",
          "name": "balance",
          "type": "uint256"
        },
        {
          "internalType": "uint256",
          "name": "needed",
          "type": "uint256"
        }
      ],
      "name": "ERC20InsufficientBalance",
      "type": "error"
    },
    {
      "inputs": [
        {
          "internalType": "address",
          "name": "approver",
          "type": "address"
        }
      ],
      "name": "ERC20InvalidApprover",
      "type": "error"
    },
    {
      "inputs": [
        {
          "internalType": "address",
          "name": "receiver",
          "type": "address"
        }
      ],
      "name": "ERC20InvalidReceiver",
      "type": "error"
    },
    {
      "inputs": [
        {
          "internalType": "address",
          "name": "sender",
          "type": "address"
        }
      ],
      "name": "ERC20InvalidSender",
      "type": "error"
    },
    {
      "inputs": [
        {
          "internalType": "address",
          "name": "spender",
          "type": "address"
        }
      ],
      "name": "ERC20InvalidSpender",
      "type": "error"
    },
    {
      "inputs": [],
      "name": "EnforcedPause",
      "type": "error"
    },
    {
      "inputs": [],
      "name": "ExpectedPause",
      "type": "error"
    },
    {
      "inputs": [
        {
          "internalType": "address",
          "name": "owner",
          "type": "address"
        }
      ],
      "name": "OwnableInvalidOwner",
      "type": "error"
    },
    {
      "inputs": [
        {
          "internalType": "address",
          "name": "account",
          "type": "address"
        }
      ],
      "name": "OwnableUnauthorizedAccount",
      "type": "error"
    },
    {
      "inputs": [],
      "name": "ReentrancyGuardReentrantCall",
      "type": "error"
    },
    {
      "inputs": [
        {
          "internalType": "address",
          "name": "token",
          "type": "address"
        }
      ],
      "name": "SafeERC20FailedOperation",
      "type": "error"
    },
    {
      "anonymous": false,
      "inputs": [
        {
          "indexed": true,
          "internalType": "address",
          "name": "owner",
          "type": "address"
        },
        {
          "indexed": true,
          "internalType": "address",
          "name": "spender",
          "type": "address"
        },
        {
          "indexed": false,
          "internalType": "uint256",
          "name": "value",
          "type": "uint256"
        }
      ],
      "name": "Approval",
      "type": "event"
    },
    {
      "anonymous": false,
      "inputs": [
        {
          "indexed": true,
          "internalType": "address",
          "name": "wallet",
          "type": "address"
        },
        {
          "indexed": true,
          "internalType": "bytes32",
          "name": "credentialHash",
          "type": "bytes32"
        }
      ],
      "name": "CredentialApproved",
      "type": "event"
    },
    {
      "anonymous": false,
      "inputs": [
        {
          "indexed": true,
          "internalType": "bytes32",
          "name": "credentialHash",
          "type": "bytes32"
        },
        {
          "indexed": false,
          "internalType": "string",
          "name": "reason",
          "type": "string"
        }
      ],
      "name": "CredentialRevoked",
      "type": "event"
    },
    {
      "anonymous": false,
      "inputs": [
        {
          "indexed": false,
          "internalType": "uint256",
          "name": "timestamp",
          "type": "uint256"
        },
        {
          "indexed": false,
          "internalType": "string",
          "name": "reason",
          "type": "string"
        },
        {
          "indexed": false,
          "internalType": "uint256",
          "name": "unlockTime",
          "type": "uint256"
        }
      ],
      "name": "EscrowCancellationRequested",
      "type": "event"
    },
    {
      "anonymous": false,
      "inputs": [
        {
          "indexed": false,
          "internalType": "uint256",
          "name": "totalRaised",
          "type": "uint256"
        },
        {
          "indexed": false,
          "internalType": "string",
          "name": "reason",
          "type": "string"
        }
      ],
      "name": "EscrowCancelled",
      "type": "event"
    },
    {
      "anonymous": false,
      "inputs": [
        {
          "indexed": true,
          "internalType": "address",
          "name": "investor",
          "type": "address"
        },
        {
          "indexed": false,
          "internalType": "uint256",
          "name": "amount",
          "type": "uint256"
        }
      ],
      "name": "EscrowDeposit",
      "type": "event"
    },
    {
      "anonymous": false,
      "inputs": [
        {
          "indexed": false,
          "internalType": "uint256",
          "name": "totalRaised",
          "type": "uint256"
        },
        {
          "indexed": false,
          "internalType": "uint256",
          "name": "timestamp",
          "type": "uint256"
        }
      ],
      "name": "EscrowFinalized",
      "type": "event"
    },
    {
      "anonymous": false,
      "inputs": [
        {
          "indexed": false,
          "internalType": "uint256",
          "name": "oldValue",
          "type": "uint256"
        },
        {
          "indexed": false,
          "internalType": "uint256",
          "name": "newValue",
          "type": "uint256"
        }
      ],
      "name": "MinDepositChanged",
      "type": "event"
    },
    {
      "anonymous": false,
      "inputs": [
        {
          "indexed": true,
          "internalType": "address",
          "name": "previousOwner",
          "type": "address"
        },
        {
          "indexed": true,
          "internalType": "address",
          "name": "newOwner",
          "type": "address"
        }
      ],
      "name": "OwnershipTransferred",
      "type": "event"
    },
    {
      "anonymous": false,
      "inputs": [
        {
          "indexed": false,
          "internalType": "address",
          "name": "account",
          "type": "address"
        }
      ],
      "name": "Paused",
      "type": "event"
    },
    {
      "anonymous": false,
      "inputs": [
        {
          "indexed": true,
          "internalType": "address",
          "name": "investor",
          "type": "address"
        },
        {
          "indexed": false,
          "internalType": "uint256",
          "name": "amount",
          "type": "uint256"
        }
      ],
      "name": "RefundClaimed",
      "type": "event"
    },
    {
      "anonymous": false,
      "inputs": [
        {
          "indexed": true,
          "internalType": "address",
          "name": "from",
          "type": "address"
        },
        {
          "indexed": true,
          "internalType": "address",
          "name": "to",
          "type": "address"
        },
        {
          "indexed": false,
          "internalType": "uint256",
          "name": "value",
          "type": "uint256"
        }
      ],
      "name": "Transfer",
      "type": "event"
    },
    {
      "anonymous": false,
      "inputs": [
        {
          "indexed": false,
          "internalType": "address",
          "name": "account",
          "type": "address"
        }
      ],
      "name": "Unpaused",
      "type": "event"
    },
    {
      "anonymous": false,
      "inputs": [
        {
          "indexed": true,
          "internalType": "address",
          "name": "wallet",
          "type": "address"
        }
      ],
      "name": "WalletFrozen",
      "type": "event"
    },
    {
      "anonymous": false,
      "inputs": [
        {
          "indexed": true,
          "internalType": "address",
          "name": "wallet",
          "type": "address"
        }
      ],
      "name": "WalletUnfrozen",
      "type": "event"
    },
    {
      "anonymous": false,
      "inputs": [
        {
          "indexed": true,
          "internalType": "address",
          "name": "investor",
          "type": "address"
        },
        {
          "indexed": false,
          "internalType": "uint256",
          "name": "amount",
          "type": "uint256"
        }
      ],
      "name": "YieldAccrued",
      "type": "event"
    },
    {
      "anonymous": false,
      "inputs": [
        {
          "indexed": false,
          "internalType": "uint256",
          "name": "amount",
          "type": "uint256"
        },
        {
          "indexed": false,
          "internalType": "uint256",
          "name": "newAccYieldPerShare",
          "type": "uint256"
        }
      ],
      "name": "YieldDeposited",
      "type": "event"
    },
    {
      "anonymous": false,
      "inputs": [
        {
          "indexed": true,
          "internalType": "address",
          "name": "investor",
          "type": "address"
        },
        {
          "indexed": false,
          "internalType": "uint256",
          "name": "amount",
          "type": "uint256"
        }
      ],
      "name": "YieldWithdrawn",
      "type": "event"
    },
    {
      "stateMutability": "payable",
      "type": "fallback"
    },
    {
      "inputs": [],
      "name": "PROPERTY_TOKEN_SUPPLY",
      "outputs": [
        {
          "internalType": "uint256",
          "name": "",
          "type": "uint256"
        }
      ],
      "stateMutability": "view",
      "type": "function"
    },
    {
      "inputs": [],
      "name": "accYieldPerShare",
      "outputs": [
        {
          "internalType": "uint256",
          "name": "",
          "type": "uint256"
        }
      ],
      "stateMutability": "view",
      "type": "function"
    },
    {
      "inputs": [
        {
          "internalType": "address",
          "name": "owner",
          "type": "address"
        },
        {
          "internalType": "address",
          "name": "spender",
          "type": "address"
        }
      ],
      "name": "allowance",
      "outputs": [
        {
          "internalType": "uint256",
          "name": "",
          "type": "uint256"
        }
      ],
      "stateMutability": "view",
      "type": "function"
    },
    {
      "inputs": [
        {
          "internalType": "address",
          "name": "spender",
          "type": "address"
        },
        {
          "internalType": "uint256",
          "name": "value",
          "type": "uint256"
        }
      ],
      "name": "approve",
      "outputs": [
        {
          "internalType": "bool",
          "name": "",
          "type": "bool"
        }
      ],
      "stateMutability": "nonpayable",
      "type": "function"
    },
    {
      "inputs": [
        {
          "internalType": "address",
          "name": "account",
          "type": "address"
        }
      ],
      "name": "balanceOf",
      "outputs": [
        {
          "internalType": "uint256",
          "name": "",
          "type": "uint256"
        }
      ],
      "stateMutability": "view",
      "type": "function"
    },
    {
      "inputs": [],
      "name": "claimTokens",
      "outputs": [],
      "stateMutability": "nonpayable",
      "type": "function"
    },
    {
      "inputs": [],
      "name": "claimYield",
      "outputs": [],
      "stateMutability": "nonpayable",
      "type": "function"
    },
    {
      "inputs": [
        {
          "internalType": "address[]",
          "name": "users",
          "type": "address[]"
        }
      ],
      "name": "claimYieldFor",
      "outputs": [],
      "stateMutability": "nonpayable",
      "type": "function"
    },
    {
      "inputs": [],
      "name": "decimals",
      "outputs": [
        {
          "internalType": "uint8",
          "name": "",
          "type": "uint8"
        }
      ],
      "stateMutability": "view",
      "type": "function"
    },
    {
      "inputs": [],
      "name": "depositEscrow",
      "outputs": [],
      "stateMutability": "payable",
      "type": "function"
    },
    {
      "inputs": [],
      "name": "depositYield",
      "outputs": [],
      "stateMutability": "payable",
      "type": "function"
    },
    {
      "inputs": [],
      "name": "escrowCancelPending",
      "outputs": [
        {
          "internalType": "bool",
          "name": "",
          "type": "bool"
        }
      ],
      "stateMutability": "view",
      "type": "function"
    },
    {
      "inputs": [],
      "name": "escrowCancelReason",
      "outputs": [
        {
          "internalType": "string",
          "name": "",
          "type": "string"
        }
      ],
      "stateMutability": "view",
      "type": "function"
    },
    {
      "inputs": [],
      "name": "escrowCancelTimestamp",
      "outputs": [
        {
          "internalType": "uint256",
          "name": "",
          "type": "uint256"
        }
      ],
      "stateMutability": "view",
      "type": "function"
    },
    {
      "inputs": [
        {
          "internalType": "address",
          "name": "",
          "type": "address"
        }
      ],
      "name": "escrowDeposits",
      "outputs": [
        {
          "internalType": "uint256",
          "name": "",
          "type": "uint256"
        }
      ],
      "stateMutability": "view",
      "type": "function"
    },
    {
      "inputs": [],
      "name": "escrowState",
      "outputs": [
        {
          "internalType": "enum StrataDeedRWA.EscrowState",
          "name": "",
          "type": "uint8"
        }
      ],
      "stateMutability": "view",
      "type": "function"
    },
    {
      "inputs": [],
      "name": "executeCancelEscrow",
      "outputs": [],
      "stateMutability": "nonpayable",
      "type": "function"
    },
    {
      "inputs": [],
      "name": "finalizeEscrow",
      "outputs": [],
      "stateMutability": "nonpayable",
      "type": "function"
    },
    {
      "inputs": [
        {
          "internalType": "address",
          "name": "wallet",
          "type": "address"
        }
      ],
      "name": "freezeWallet",
      "outputs": [],
      "stateMutability": "nonpayable",
      "type": "function"
    },
    {
      "inputs": [],
      "name": "fundingCap",
      "outputs": [
        {
          "internalType": "uint256",
          "name": "",
          "type": "uint256"
        }
      ],
      "stateMutability": "view",
      "type": "function"
    },
    {
      "inputs": [],
      "name": "getEscrowInfo",
      "outputs": [
        {
          "internalType": "enum StrataDeedRWA.EscrowState",
          "name": "state",
          "type": "uint8"
        },
        {
          "internalType": "uint256",
          "name": "raised",
          "type": "uint256"
        },
        {
          "internalType": "uint256",
          "name": "cap",
          "type": "uint256"
        },
        {
          "internalType": "uint256",
          "name": "remaining",
          "type": "uint256"
        }
      ],
      "stateMutability": "view",
      "type": "function"
    },
    {
      "inputs": [
        {
          "internalType": "address",
          "name": "investor",
          "type": "address"
        }
      ],
      "name": "getInvestorInfo",
      "outputs": [
        {
          "internalType": "uint256",
          "name": "deposit",
          "type": "uint256"
        },
        {
          "internalType": "uint256",
          "name": "tokens",
          "type": "uint256"
        },
        {
          "internalType": "uint256",
          "name": "pendingYield",
          "type": "uint256"
        },
        {
          "internalType": "bool",
          "name": "compliant",
          "type": "bool"
        }
      ],
      "stateMutability": "view",
      "type": "function"
    },
    {
      "inputs": [
        {
          "internalType": "address",
          "name": "user",
          "type": "address"
        }
      ],
      "name": "getPendingYield",
      "outputs": [
        {
          "internalType": "uint256",
          "name": "",
          "type": "uint256"
        }
      ],
      "stateMutability": "view",
      "type": "function"
    },
    {
      "inputs": [],
      "name": "getTimelockInfo",
      "outputs": [
        {
          "internalType": "bool",
          "name": "pending",
          "type": "bool"
        },
        {
          "internalType": "uint256",
          "name": "unlockTime",
          "type": "uint256"
        },
        {
          "internalType": "string",
          "name": "reason",
          "type": "string"
        }
      ],
      "stateMutability": "view",
      "type": "function"
    },
    {
      "inputs": [
        {
          "internalType": "address",
          "name": "wallet",
          "type": "address"
        }
      ],
      "name": "isCompliant",
      "outputs": [
        {
          "internalType": "bool",
          "name": "",
          "type": "bool"
        }
      ],
      "stateMutability": "view",
      "type": "function"
    },
    {
      "inputs": [
        {
          "internalType": "bytes32",
          "name": "",
          "type": "bytes32"
        }
      ],
      "name": "isCredentialRevoked",
      "outputs": [
        {
          "internalType": "bool",
          "name": "",
          "type": "bool"
        }
      ],
      "stateMutability": "view",
      "type": "function"
    },
    {
      "inputs": [
        {
          "internalType": "address",
          "name": "",
          "type": "address"
        }
      ],
      "name": "isWalletFrozen",
      "outputs": [
        {
          "internalType": "bool",
          "name": "",
          "type": "bool"
        }
      ],
      "stateMutability": "view",
      "type": "function"
    },
    {
      "inputs": [],
      "name": "minDepositForTokens",
      "outputs": [
        {
          "internalType": "uint256",
          "name": "",
          "type": "uint256"
        }
      ],
      "stateMutability": "view",
      "type": "function"
    },
    {
      "inputs": [],
      "name": "name",
      "outputs": [
        {
          "internalType": "string",
          "name": "",
          "type": "string"
        }
      ],
      "stateMutability": "view",
      "type": "function"
    },
    {
      "inputs": [],
      "name": "owner",
      "outputs": [
        {
          "internalType": "address",
          "name": "",
          "type": "address"
        }
      ],
      "stateMutability": "view",
      "type": "function"
    },
    {
      "inputs": [],
      "name": "pauseContract",
      "outputs": [],
      "stateMutability": "nonpayable",
      "type": "function"
    },
    {
      "inputs": [],
      "name": "paused",
      "outputs": [
        {
          "internalType": "bool",
          "name": "",
          "type": "bool"
        }
      ],
      "stateMutability": "view",
      "type": "function"
    },
    {
      "inputs": [
        {
          "internalType": "address",
          "name": "tokenAddress",
          "type": "address"
        },
        {
          "internalType": "uint256",
          "name": "amount",
          "type": "uint256"
        }
      ],
      "name": "recoverERC20",
      "outputs": [],
      "stateMutability": "nonpayable",
      "type": "function"
    },
    {
      "inputs": [
        {
          "internalType": "uint256",
          "name": "amount",
          "type": "uint256"
        }
      ],
      "name": "recoverETH",
      "outputs": [],
      "stateMutability": "nonpayable",
      "type": "function"
    },
    {
      "inputs": [
        {
          "internalType": "address",
          "name": "wallet",
          "type": "address"
        },
        {
          "internalType": "bytes32",
          "name": "credentialHash",
          "type": "bytes32"
        }
      ],
      "name": "registerCredential",
      "outputs": [],
      "stateMutability": "nonpayable",
      "type": "function"
    },
    {
      "inputs": [],
      "name": "renounceOwnership",
      "outputs": [],
      "stateMutability": "nonpayable",
      "type": "function"
    },
    {
      "inputs": [
        {
          "internalType": "string",
          "name": "reason",
          "type": "string"
        }
      ],
      "name": "requestCancelEscrow",
      "outputs": [],
      "stateMutability": "nonpayable",
      "type": "function"
    },
    {
      "inputs": [
        {
          "internalType": "bytes32",
          "name": "credentialHash",
          "type": "bytes32"
        },
        {
          "internalType": "string",
          "name": "reason",
          "type": "string"
        }
      ],
      "name": "revokeCredentialHash",
      "outputs": [],
      "stateMutability": "nonpayable",
      "type": "function"
    },
    {
      "inputs": [
        {
          "internalType": "address",
          "name": "",
          "type": "address"
        }
      ],
      "name": "rewardDebt",
      "outputs": [
        {
          "internalType": "uint256",
          "name": "",
          "type": "uint256"
        }
      ],
      "stateMutability": "view",
      "type": "function"
    },
    {
      "inputs": [
        {
          "internalType": "uint256",
          "name": "newMinDeposit",
          "type": "uint256"
        }
      ],
      "name": "setMinDeposit",
      "outputs": [],
      "stateMutability": "nonpayable",
      "type": "function"
    },
    {
      "inputs": [],
      "name": "symbol",
      "outputs": [
        {
          "internalType": "string",
          "name": "",
          "type": "string"
        }
      ],
      "stateMutability": "view",
      "type": "function"
    },
    {
      "inputs": [],
      "name": "totalEscrowRaised",
      "outputs": [
        {
          "internalType": "uint256",
          "name": "",
          "type": "uint256"
        }
      ],
      "stateMutability": "view",
      "type": "function"
    },
    {
      "inputs": [],
      "name": "totalEscrowRaisedBeforeFinalization",
      "outputs": [
        {
          "internalType": "uint256",
          "name": "",
          "type": "uint256"
        }
      ],
      "stateMutability": "view",
      "type": "function"
    },
    {
      "inputs": [],
      "name": "totalSupply",
      "outputs": [
        {
          "internalType": "uint256",
          "name": "",
          "type": "uint256"
        }
      ],
      "stateMutability": "view",
      "type": "function"
    },
    {
      "inputs": [],
      "name": "totalYieldDistributed",
      "outputs": [
        {
          "internalType": "uint256",
          "name": "",
          "type": "uint256"
        }
      ],
      "stateMutability": "view",
      "type": "function"
    },
    {
      "inputs": [
        {
          "internalType": "address",
          "name": "to",
          "type": "address"
        },
        {
          "internalType": "uint256",
          "name": "value",
          "type": "uint256"
        }
      ],
      "name": "transfer",
      "outputs": [
        {
          "internalType": "bool",
          "name": "",
          "type": "bool"
        }
      ],
      "stateMutability": "nonpayable",
      "type": "function"
    },
    {
      "inputs": [
        {
          "internalType": "address",
          "name": "from",
          "type": "address"
        },
        {
          "internalType": "address",
          "name": "to",
          "type": "address"
        },
        {
          "internalType": "uint256",
          "name": "value",
          "type": "uint256"
        }
      ],
      "name": "transferFrom",
      "outputs": [
        {
          "internalType": "bool",
          "name": "",
          "type": "bool"
        }
      ],
      "stateMutability": "nonpayable",
      "type": "function"
    },
    {
      "inputs": [
        {
          "internalType": "address",
          "name": "newOwner",
          "type": "address"
        }
      ],
      "name": "transferOwnership",
      "outputs": [],
      "stateMutability": "nonpayable",
      "type": "function"
    },
    {
      "inputs": [
        {
          "internalType": "address",
          "name": "wallet",
          "type": "address"
        }
      ],
      "name": "unfreezeWallet",
      "outputs": [],
      "stateMutability": "nonpayable",
      "type": "function"
    },
    {
      "inputs": [],
      "name": "unpauseContract",
      "outputs": [],
      "stateMutability": "nonpayable",
      "type": "function"
    },
    {
      "inputs": [],
      "name": "withdrawRefund",
      "outputs": [],
      "stateMutability": "nonpayable",
      "type": "function"
    },
    {
      "stateMutability": "payable",
      "type": "receive"
    }
  ],
  "bytecode": "0x60a060405266038d7ea4c680006007553480156200001c57600080fd5b506040516200602138038062006021833981810160405281019062000042919062000353565b806040518060400160405280601b81526020017f537472617461446565642050726f706572747920546f6b656e203100000000008152506040518060400160405280600681526020017f534450542d3100000000000000000000000000000000000000000000000000008152508160039081620000c091906200060a565b508060049081620000d291906200060a565b505050600073ffffffffffffffffffffffffffffffffffffffff168173ffffffffffffffffffffffffffffffffffffffff16036200014a5760006040517f1e4fbdf700000000000000000000000000000000000000000000000000000000815260040162000141919062000702565b60405180910390fd5b6200015b81620001e860201b60201c565b50600160068190555060008211620001aa576040517f08c379a0000000000000000000000000000000000000000000000000000000008152600401620001a19062000780565b60405180910390fd5b81608081815250506000600b60006101000a81548160ff02191690836002811115620001db57620001da620007a2565b5b02179055505050620007d1565b6000600560009054906101000a900473ffffffffffffffffffffffffffffffffffffffff16905081600560006101000a81548173ffffffffffffffffffffffffffffffffffffffff021916908373ffffffffffffffffffffffffffffffffffffffff1602179055508173ffffffffffffffffffffffffffffffffffffffff168173ffffffffffffffffffffffffffffffffffffffff167f8be0079c531659141344cd1fd0a4f28419497f9722a3daafe3b4186f6b6457e060405160405180910390a35050565b600080fd5b6000819050919050565b620002c881620002b3565b8114620002d457600080fd5b50565b600081519050620002e881620002bd565b92915050565b600073ffffffffffffffffffffffffffffffffffffffff82169050919050565b60006200031b82620002ee565b9050919050565b6200032d816200030e565b81146200033957600080fd5b50565b6000815190506200034d8162000322565b92915050565b600080604083850312156200036d576200036c620002ae565b5b60006200037d85828601620002d7565b925050602062000390858286016200033c565b9150509250929050565b600081519050919050565b7f4e487b7100000000000000000000000000000000000000000000000000000000600052604160045260246000fd5b7f4e487b7100000000000000000000000000000000000000000000000000000000600052602260045260246000fd5b600060028204905060018216806200041c57607f821691505b602082108103620004325762000431620003d4565b5b50919050565b60008190508160005260206000209050919050565b60006020601f8301049050919050565b600082821b905092915050565b6000600883026200049c7fffffffffffffffffffffffffffffffffffffffffffffffffffffffffffffffff826200045d565b620004a886836200045d565b95508019841693508086168417925050509392505050565b6000819050919050565b6000620004eb620004e5620004df84620002b3565b620004c0565b620002b3565b9050919050565b6000819050919050565b6200050783620004ca565b6200051f6200051682620004f2565b8484546200046a565b825550505050565b600090565b6200053662000527565b62000543818484620004fc565b505050565b5b818110156200056b576200055f6000826200052c565b60018101905062000549565b5050565b601f821115620005ba57620005848162000438565b6200058f846200044d565b810160208510156200059f578190505b620005b7620005ae856200044d565b83018262000548565b50505b505050565b600082821c905092915050565b6000620005df60001984600802620005bf565b1980831691505092915050565b6000620005fa8383620005cc565b9150826002028217905092915050565b62000615826200039a565b67ffffffffffffffff811115620006315762000630620003a5565b5b6200063d825462000403565b6200064a8282856200056f565b600060209050601f8311600181146200068257600084156200066d578287015190505b620006798582620005ec565b865550620006e9565b601f198416620006928662000438565b60005b82811015620006bc5784890151825560018201915060208501945060208101905062000695565b86831015620006dc5784890151620006d8601f891682620005cc565b8355505b6001600288020188555050505b505050505050565b620006fc816200030e565b82525050565b6000602082019050620007196000830184620006f1565b92915050565b600082825260208201905092915050565b7f46756e64696e6720636170206d757374206265203e2030000000000000000000600082015250565b6000620007686017836200071f565b9150620007758262000730565b602082019050919050565b600060208201905081810360008301526200079b8162000759565b9050919050565b7f4e487b7100000000000000000000000000000000000000000000000000000000600052602160045260246000fd5b60805161581f6200080260003960008181610f2c01528181610f5001528181611fec0152612be2015261581f6000f3fe6080604052600436106102e75760003560e01c806379288c0c11610190578063a2d5b005116100dc578063cba8af9b11610095578063e3b2594f1161006f578063e3b2594f14610b33578063e509b03314610b5e578063f2fde38b14610b89578063fa1c328514610bb257610327565b8063cba8af9b14610aa4578063d333555314610acd578063dd62ed3e14610af657610327565b8063a2d5b005146109a8578063a7096763146109e5578063a9059cbb14610a10578063b33712c514610a4d578063b92e7fed14610a64578063ca2c018414610a7b57610327565b80638fcc9cfb1161014957806397206bd51161012357806397206bd5146108ee57806399e01dc9146109195780639f00116914610942578063a200e5d01461096b57610327565b80638fcc9cfb1461085d57806395583b071461088657806395d89b41146108c357610327565b806379288c0c1461078057806382cde4a3146107a95780638980f11f146107d45780638aa1c0dc146107fd5780638c8e6f5e146108075780638da5cb5b1461083257610327565b8063313ce5671161024f578063537bb137116102085780635e1013a3116101e25780635e1013a3146106d857806360f588b71461070357806370a082311461072c578063715018a61461076957610327565b8063537bb137146106335780635873eb9b146106705780635c975abb146106ad57610327565b8063313ce5671461058e578063406cf229146105b9578063439766ce146105d057806347046891146105e757806348c54b9d146105f1578063518c51041461060857610327565b8063095ea7b3116102a1578063095ea7b31461047a5780630dbcc88e146104b7578063110f8874146104e457806318160ddd146104fb5780631b6701911461052657806323b872dd1461055157610327565b8062cf86681461036257806306a53b091461039f57806306fdde03146103ca5780630707873c146103f5578063085f9e281461043557806309145d7d1461044c57610327565b36610327576040517f08c379a000000000000000000000000000000000000000000000000000000000815260040161031e90613c3f565b60405180910390fd5b6040517f08c379a000000000000000000000000000000000000000000000000000000000815260040161035990613cab565b60405180910390fd5b34801561036e57600080fd5b5061038960048036038101906103849190613d15565b610bdd565b6040516103969190613d5d565b60405180910390f35b3480156103ab57600080fd5b506103b4610bfd565b6040516103c19190613d91565b60405180910390f35b3480156103d657600080fd5b506103df610c03565b6040516103ec9190613e2b565b60405180910390f35b34801561040157600080fd5b5061041c60048036038101906104179190613eab565b610c95565b60405161042c9493929190613ed8565b60405180910390f35b34801561044157600080fd5b5061044a610d05565b005b34801561045857600080fd5b50610461610f11565b6040516104719493929190613f94565b60405180910390f35b34801561048657600080fd5b506104a1600480360381019061049c9190614005565b610f87565b6040516104ae9190613d5d565b60405180910390f35b3480156104c357600080fd5b506104cc610faa565b6040516104db93929190614045565b60405180910390f35b3480156104f057600080fd5b506104f961105b565b005b34801561050757600080fd5b506105106112f4565b60405161051d9190613d91565b60405180910390f35b34801561053257600080fd5b5061053b6112fe565b6040516105489190614083565b60405180910390f35b34801561055d57600080fd5b506105786004803603810190610573919061409e565b611311565b6040516105859190613d5d565b60405180910390f35b34801561059a57600080fd5b506105a3611340565b6040516105b0919061410d565b60405180910390f35b3480156105c557600080fd5b506105ce611349565b005b3480156105dc57600080fd5b506105e5611576565b005b6105ef611588565b005b3480156105fd57600080fd5b506106066116b1565b005b34801561061457600080fd5b5061061d61190a565b60405161062a9190613d91565b60405180910390f35b34801561063f57600080fd5b5061065a60048036038101906106559190613eab565b611910565b6040516106679190613d91565b60405180910390f35b34801561067c57600080fd5b5061069760048036038101906106929190613eab565b611a32565b6040516106a49190613d91565b60405180910390f35b3480156106b957600080fd5b506106c2611a4a565b6040516106cf9190613d5d565b60405180910390f35b3480156106e457600080fd5b506106ed611a61565b6040516106fa9190613d91565b60405180910390f35b34801561070f57600080fd5b5061072a60048036038101906107259190613eab565b611a67565b005b34801561073857600080fd5b50610753600480360381019061074e9190613eab565b611b0d565b6040516107609190613d91565b60405180910390f35b34801561077557600080fd5b5061077e611b55565b005b34801561078c57600080fd5b506107a760048036038101906107a2919061418d565b611b69565b005b3480156107b557600080fd5b506107be611e02565b6040516107cb9190613d91565b60405180910390f35b3480156107e057600080fd5b506107fb60048036038101906107f69190614005565b611e08565b005b610805611f23565b005b34801561081357600080fd5b5061081c6121aa565b6040516108299190613d5d565b60405180910390f35b34801561083e57600080fd5b506108476121bd565b60405161085491906141e9565b60405180910390f35b34801561086957600080fd5b50610884600480360381019061087f9190614204565b6121e7565b005b34801561089257600080fd5b506108ad60048036038101906108a89190613eab565b6122aa565b6040516108ba9190613d5d565b60405180910390f35b3480156108cf57600080fd5b506108d86122ca565b6040516108e59190613e2b565b60405180910390f35b3480156108fa57600080fd5b5061090361235c565b6040516109109190613d91565b60405180910390f35b34801561092557600080fd5b50610940600480360381019061093b9190614231565b612362565b005b34801561094e57600080fd5b5061096960048036038101906109649190613eab565b6124aa565b005b34801561097757600080fd5b50610992600480360381019061098d9190613eab565b612550565b60405161099f9190613d5d565b60405180910390f35b3480156109b457600080fd5b506109cf60048036038101906109ca9190613eab565b612640565b6040516109dc9190613d91565b60405180910390f35b3480156109f157600080fd5b506109fa612658565b604051610a079190613d91565b60405180910390f35b348015610a1c57600080fd5b50610a376004803603810190610a329190614005565b61265e565b604051610a449190613d5d565b60405180910390f35b348015610a5957600080fd5b50610a62612681565b005b348015610a7057600080fd5b50610a79612693565b005b348015610a8757600080fd5b50610aa26004803603810190610a9d91906143a1565b612899565b005b348015610ab057600080fd5b50610acb6004803603810190610ac691906143fd565b612909565b005b348015610ad957600080fd5b50610af46004803603810190610aef9190614204565b612a57565b005b348015610b0257600080fd5b50610b1d6004803603810190610b189190614446565b612b59565b604051610b2a9190613d91565b60405180910390f35b348015610b3f57600080fd5b50610b48612be0565b604051610b559190613d91565b60405180910390f35b348015610b6a57600080fd5b50610b73612c04565b604051610b809190613d91565b60405180910390f35b348015610b9557600080fd5b50610bb06004803603810190610bab9190613eab565b612c12565b005b348015610bbe57600080fd5b50610bc7612c98565b604051610bd49190613e2b565b60405180910390f35b60096020528060005260406000206000915054906101000a900460ff1681565b60075481565b606060038054610c12906144b5565b80601f0160208091040260200160405190810160405280929190818152602001828054610c3e906144b5565b8015610c8b5780601f10610c6057610100808354040283529160200191610c8b565b820191906000526020600020905b815481529060010190602001808311610c6e57829003601f168201915b5050505050905090565b600080600080600d60008673ffffffffffffffffffffffffffffffffffffffff1673ffffffffffffffffffffffffffffffffffffffff16815260200190815260200160002054610ce486611b0d565b610ced87611910565b610cf688612550565b93509350935093509193509193565b610d0d612d26565b60006002811115610d2157610d20613f1d565b5b600b60009054906101000a900460ff166002811115610d4357610d42613f1d565b5b14610d83576040517f08c379a0000000000000000000000000000000000000000000000000000000008152600401610d7a90614532565b60405180910390fd5b601160009054906101000a900460ff16610dd2576040517f08c379a0000000000000000000000000000000000000000000000000000000008152600401610dc99061459e565b60405180910390fd5b600f54421015610e17576040517f08c379a0000000000000000000000000000000000000000000000000000000008152600401610e0e9061460a565b60405180910390fd5b60006002811115610e2b57610e2a613f1d565b5b600b60009054906101000a900460ff166002811115610e4d57610e4c613f1d565b5b14610e8d576040517f08c379a0000000000000000000000000000000000000000000000000000000008152600401610e8490614676565b60405180910390fd5b6002600b60006101000a81548160ff02191690836002811115610eb357610eb2613f1d565b5b02179055506000601160006101000a81548160ff0219169083151502179055507fdf5af23a8bfbd700e381c19607d03504d7a5ba1876c669cccd37feace1f5adaa600c546010604051610f0792919061472f565b60405180910390a1565b600080600080600b60009054906101000a900460ff16600c547f0000000000000000000000000000000000000000000000000000000000000000600c547f0000000000000000000000000000000000000000000000000000000000000000610f79919061478e565b935093509350935090919293565b600080610f92612dad565b9050610f9f818585612db5565b600191505092915050565b6000806060601160009054906101000a900460ff16600f546010808054610fd0906144b5565b80601f0160208091040260200160405190810160405280929190818152602001828054610ffc906144b5565b80156110495780601f1061101e57610100808354040283529160200191611049565b820191906000526020600020905b81548152906001019060200180831161102c57829003601f168201915b50505050509050925092509250909192565b611063612dc7565b60028081111561107657611075613f1d565b5b600b60009054906101000a900460ff16600281111561109857611097613f1d565b5b146110d8576040517f08c379a00000000000000000000000000000000000000000000000000000000081526004016110cf9061480e565b60405180910390fd5b336110e281612550565b611121576040517f08c379a00000000000000000000000000000000000000000000000000000000081526004016111189061487a565b60405180910390fd5b6000600d60003373ffffffffffffffffffffffffffffffffffffffff1673ffffffffffffffffffffffffffffffffffffffff168152602001908152602001600020549050600081116111a8576040517f08c379a000000000000000000000000000000000000000000000000000000000815260040161119f906148e6565b60405180910390fd5b6000600d60003373ffffffffffffffffffffffffffffffffffffffff1673ffffffffffffffffffffffffffffffffffffffff1681526020019081526020016000208190555060003373ffffffffffffffffffffffffffffffffffffffff168260405161121390614937565b60006040518083038185875af1925050503d8060008114611250576040519150601f19603f3d011682016040523d82523d6000602084013e611255565b606091505b5050905080611299576040517f08c379a000000000000000000000000000000000000000000000000000000000815260040161129090614998565b60405180910390fd5b3373ffffffffffffffffffffffffffffffffffffffff167f358fe4192934d3bf28ae181feda1f4bd08ca67f5e2fad55582cce5eb67304ae9836040516112df9190613d91565b60405180910390a25050506112f2612e0d565b565b6000600254905090565b600b60009054906101000a900460ff1681565b60008061131c612dad565b9050611329858285612e17565b611334858585612eac565b60019150509392505050565b60006012905090565b611351612dc7565b3361135b81612550565b61139a576040517f08c379a00000000000000000000000000000000000000000000000000000000081526004016113919061487a565b60405180910390fd5b6113a333612fa0565b6000601560003373ffffffffffffffffffffffffffffffffffffffff1673ffffffffffffffffffffffffffffffffffffffff1681526020019081526020016000205490506000811161142a576040517f08c379a000000000000000000000000000000000000000000000000000000000815260040161142190614a04565b60405180910390fd5b6000601560003373ffffffffffffffffffffffffffffffffffffffff1673ffffffffffffffffffffffffffffffffffffffff1681526020019081526020016000208190555060003373ffffffffffffffffffffffffffffffffffffffff168260405161149590614937565b60006040518083038185875af1925050503d80600081146114d2576040519150601f19603f3d011682016040523d82523d6000602084013e6114d7565b606091505b505090508061151b576040517f08c379a000000000000000000000000000000000000000000000000000000000815260040161151290614a70565b60405180910390fd5b3373ffffffffffffffffffffffffffffffffffffffff167faed495d70193dd915b96156dc90595c95aa5cc4f6985a2cd79286232d96ae8e2836040516115619190613d91565b60405180910390a2505050611574612e0d565b565b61157e612d26565b611586613142565b565b611590612d26565b600061159a6112f4565b116115da576040517f08c379a00000000000000000000000000000000000000000000000000000000081526004016115d190614adc565b60405180910390fd5b6000341161161d576040517f08c379a000000000000000000000000000000000000000000000000000000000815260040161161490614b48565b60405180910390fd5b6116256112f4565b670de0b6b3a7640000346116399190614b68565b6116439190614bd9565b601260008282546116549190614c0a565b92505081905550346014600082825461166d9190614c0a565b925050819055507fa248d81b377afe8736fe397f5a9f8f0d7c581e67ff6ae4037df29a672a92133b346012546040516116a7929190614c3e565b60405180910390a1565b6116b9612dc7565b600160028111156116cd576116cc613f1d565b5b600b60009054906101000a900460ff1660028111156116ef576116ee613f1d565b5b1461172f576040517f08c379a000000000000000000000000000000000000000000000000000000000815260040161172690614cb3565b60405180910390fd5b3361173981612550565b611778576040517f08c379a000000000000000000000000000000000000000000000000000000000815260040161176f9061487a565b60405180910390fd5b6000600d60003373ffffffffffffffffffffffffffffffffffffffff1673ffffffffffffffffffffffffffffffffffffffff168152602001908152602001600020549050600081116117ff576040517f08c379a00000000000000000000000000000000000000000000000000000000081526004016117f690614d1f565b60405180910390fd5b6000600e5411611844576040517f08c379a000000000000000000000000000000000000000000000000000000000815260040161183b90614d8b565b60405180910390fd5b6000600e5469152d02c7e14af68000008361185f9190614b68565b6118699190614bd9565b9050600081116118ae576040517f08c379a00000000000000000000000000000000000000000000000000000000081526004016118a590614df7565b60405180910390fd5b6000600d60003373ffffffffffffffffffffffffffffffffffffffff1673ffffffffffffffffffffffffffffffffffffffff168152602001908152602001600020819055506118fd33826131a5565b505050611908612e0d565b565b600f5481565b60008061191c83611b0d565b90506000810361196e57601560008473ffffffffffffffffffffffffffffffffffffffff1673ffffffffffffffffffffffffffffffffffffffff16815260200190815260200160002054915050611a2d565b6000601360008573ffffffffffffffffffffffffffffffffffffffff1673ffffffffffffffffffffffffffffffffffffffff16815260200190815260200160002054670de0b6b3a7640000601254846119c79190614b68565b6119d19190614bd9565b6119db919061478e565b905080601560008673ffffffffffffffffffffffffffffffffffffffff1673ffffffffffffffffffffffffffffffffffffffff16815260200190815260200160002054611a289190614c0a565b925050505b919050565b60136020528060005260406000206000915090505481565b6000600560149054906101000a900460ff16905090565b60125481565b611a6f612d26565b6000600a60008373ffffffffffffffffffffffffffffffffffffffff1673ffffffffffffffffffffffffffffffffffffffff16815260200190815260200160002060006101000a81548160ff0219169083151502179055508073ffffffffffffffffffffffffffffffffffffffff167fd247131fabb99dc3ba793524f53f05a77eeef38f12b30119655ee340810b121060405160405180910390a250565b60008060008373ffffffffffffffffffffffffffffffffffffffff1673ffffffffffffffffffffffffffffffffffffffff168152602001908152602001600020549050919050565b611b5d612d26565b611b676000613227565b565b611b71612d26565b611b79612dc7565b60005b82829050811015611df557611bb7838383818110611b9d57611b9c614e17565b5b9050602002016020810190611bb29190613eab565b612fa0565b600060156000858585818110611bd057611bcf614e17565b5b9050602002016020810190611be59190613eab565b73ffffffffffffffffffffffffffffffffffffffff1673ffffffffffffffffffffffffffffffffffffffff1681526020019081526020016000205490506000811115611de157600060156000868686818110611c4457611c43614e17565b5b9050602002016020810190611c599190613eab565b73ffffffffffffffffffffffffffffffffffffffff1673ffffffffffffffffffffffffffffffffffffffff168152602001908152602001600020819055506000848484818110611cac57611cab614e17565b5b9050602002016020810190611cc19190613eab565b73ffffffffffffffffffffffffffffffffffffffff1682604051611ce490614937565b60006040518083038185875af1925050503d8060008114611d21576040519150601f19603f3d011682016040523d82523d6000602084013e611d26565b606091505b5050905080611d6a576040517f08c379a0000000000000000000000000000000000000000000000000000000008152600401611d6190614a70565b60405180910390fd5b848484818110611d7d57611d7c614e17565b5b9050602002016020810190611d929190613eab565b73ffffffffffffffffffffffffffffffffffffffff167faed495d70193dd915b96156dc90595c95aa5cc4f6985a2cd79286232d96ae8e283604051611dd79190613d91565b60405180910390a2505b508080611ded90614e46565b915050611b7c565b50611dfe612e0d565b5050565b600e5481565b611e10612d26565b600073ffffffffffffffffffffffffffffffffffffffff168273ffffffffffffffffffffffffffffffffffffffff1603611e7f576040517f08c379a0000000000000000000000000000000000000000000000000000000008152600401611e7690614eda565b60405180910390fd5b3073ffffffffffffffffffffffffffffffffffffffff168273ffffffffffffffffffffffffffffffffffffffff1603611eed576040517f08c379a0000000000000000000000000000000000000000000000000000000008152600401611ee490614f46565b60405180910390fd5b611f1f611ef86121bd565b828473ffffffffffffffffffffffffffffffffffffffff166132ed9092919063ffffffff16565b5050565b611f2b612dc7565b60006002811115611f3f57611f3e613f1d565b5b600b60009054906101000a900460ff166002811115611f6157611f60613f1d565b5b14611fa1576040517f08c379a0000000000000000000000000000000000000000000000000000000008152600401611f9890614532565b60405180910390fd5b33611fab81612550565b611fea576040517f08c379a0000000000000000000000000000000000000000000000000000000008152600401611fe19061487a565b60405180910390fd5b7f000000000000000000000000000000000000000000000000000000000000000034600c546120199190614c0a565b111561205a576040517f08c379a000000000000000000000000000000000000000000000000000000000815260040161205190614fb2565b60405180910390fd5b6000341161209d576040517f08c379a00000000000000000000000000000000000000000000000000000000081526004016120949061501e565b60405180910390fd5b6007543410156120e2576040517f08c379a00000000000000000000000000000000000000000000000000000000081526004016120d99061508a565b60405180910390fd5b34600d60003373ffffffffffffffffffffffffffffffffffffffff1673ffffffffffffffffffffffffffffffffffffffff16815260200190815260200160002060008282546121319190614c0a565b9250508190555034600c600082825461214a9190614c0a565b925050819055503373ffffffffffffffffffffffffffffffffffffffff167fc9030f4276aa9a54d2f20e78ab66876119c07f7bc8bff21fb4762855efdecd2f346040516121979190613d91565b60405180910390a2506121a8612e0d565b565b601160009054906101000a900460ff1681565b6000600560009054906101000a900473ffffffffffffffffffffffffffffffffffffffff16905090565b6121ef612d26565b6000600281111561220357612202613f1d565b5b600b60009054906101000a900460ff16600281111561222557612224613f1d565b5b14612265576040517f08c379a000000000000000000000000000000000000000000000000000000000815260040161225c90614532565b60405180910390fd5b7fcacd94bd1e7bb1185c816a740d9439bc8eff8159f6f4ffad8d306b5aca2ebd9260075482604051612298929190614c3e565b60405180910390a18060078190555050565b600a6020528060005260406000206000915054906101000a900460ff1681565b6060600480546122d9906144b5565b80601f0160208091040260200160405190810160405280929190818152602001828054612305906144b5565b80156123525780601f1061232757610100808354040283529160200191612352565b820191906000526020600020905b81548152906001019060200180831161233557829003601f168201915b5050505050905090565b60145481565b61236a612d26565b600073ffffffffffffffffffffffffffffffffffffffff168273ffffffffffffffffffffffffffffffffffffffff16036123d9576040517f08c379a00000000000000000000000000000000000000000000000000000000081526004016123d0906150f6565b60405180910390fd5b6000801b810361241e576040517f08c379a000000000000000000000000000000000000000000000000000000000815260040161241590615162565b60405180910390fd5b80600860008473ffffffffffffffffffffffffffffffffffffffff1673ffffffffffffffffffffffffffffffffffffffff16815260200190815260200160002081905550808273ffffffffffffffffffffffffffffffffffffffff167fa9c79f7fdecbcadc910a54acb350582c5305208bae1816c550e2ed206ca7b80660405160405180910390a35050565b6124b2612d26565b6001600a60008373ffffffffffffffffffffffffffffffffffffffff1673ffffffffffffffffffffffffffffffffffffffff16815260200190815260200160002060006101000a81548160ff0219169083151502179055508073ffffffffffffffffffffffffffffffffffffffff167fc9710d20bdbf99ca92a03644a5a8f85ea6badb387ff0abca08eebdfbff50b77f60405160405180910390a250565b6000600a60008373ffffffffffffffffffffffffffffffffffffffff1673ffffffffffffffffffffffffffffffffffffffff16815260200190815260200160002060009054906101000a900460ff16156125ad576000905061263b565b6000600860008473ffffffffffffffffffffffffffffffffffffffff1673ffffffffffffffffffffffffffffffffffffffff1681526020019081526020016000205490506000801b810361260557600091505061263b565b6009600082815260200190815260200160002060009054906101000a900460ff161561263557600091505061263b565b60019150505b919050565b600d6020528060005260406000206000915090505481565b600c5481565b600080612669612dad565b9050612676818585612eac565b600191505092915050565b612689612d26565b61269161336c565b565b61269b612d26565b6126a3612dc7565b600060028111156126b7576126b6613f1d565b5b600b60009054906101000a900460ff1660028111156126d9576126d8613f1d565b5b14612719576040517f08c379a000000000000000000000000000000000000000000000000000000000815260040161271090614532565b60405180910390fd5b6000600c541161275e576040517f08c379a0000000000000000000000000000000000000000000000000000000008152600401612755906151ce565b60405180910390fd5b6001600b60006101000a81548160ff0219169083600281111561278457612783613f1d565b5b0217905550600c54600e819055506000600c5490506000600c8190555060006127ab6121bd565b73ffffffffffffffffffffffffffffffffffffffff16826040516127ce90614937565b60006040518083038185875af1925050503d806000811461280b576040519150601f19603f3d011682016040523d82523d6000602084013e612810565b606091505b5050905080612854576040517f08c379a000000000000000000000000000000000000000000000000000000000815260040161284b9061523a565b60405180910390fd5b7fba737fc715de33eff4584df27bc4f73ce95709c537e32e6930a03d906ebb1c7d8242604051612885929190614c3e565b60405180910390a15050612897612e0d565b565b6128a1612d26565b60016009600084815260200190815260200160002060006101000a81548160ff021916908315150217905550817f8a7dd18f81574794be0ac8390928b9b5988992a941406746e60f37ea696126d7826040516128fd9190613e2b565b60405180910390a25050565b612911612d26565b6000600281111561292557612924613f1d565b5b600b60009054906101000a900460ff16600281111561294757612946613f1d565b5b14612987576040517f08c379a000000000000000000000000000000000000000000000000000000000815260040161297e90614532565b60405180910390fd5b601160009054906101000a900460ff16156129d7576040517f08c379a00000000000000000000000000000000000000000000000000000000081526004016129ce906152a6565b60405180910390fd5b6001601160006101000a81548160ff0219169083151502179055508060109081612a01919061545d565b506202a30042612a119190614c0a565b600f819055507f9b1271142b9081f06199378d5950b21a579d277be3fc68908d852b43a5cca0f24282600f54604051612a4c9392919061552f565b60405180910390a150565b612a5f612d26565b80471015612aa2576040517f08c379a0000000000000000000000000000000000000000000000000000000008152600401612a99906155b9565b60405180910390fd5b6000612aac6121bd565b73ffffffffffffffffffffffffffffffffffffffff1682604051612acf90614937565b60006040518083038185875af1925050503d8060008114612b0c576040519150601f19603f3d011682016040523d82523d6000602084013e612b11565b606091505b5050905080612b55576040517f08c379a0000000000000000000000000000000000000000000000000000000008152600401612b4c90615625565b60405180910390fd5b5050565b6000600160008473ffffffffffffffffffffffffffffffffffffffff1673ffffffffffffffffffffffffffffffffffffffff16815260200190815260200160002060008373ffffffffffffffffffffffffffffffffffffffff1673ffffffffffffffffffffffffffffffffffffffff16815260200190815260200160002054905092915050565b7f000000000000000000000000000000000000000000000000000000000000000081565b69152d02c7e14af680000081565b612c1a612d26565b600073ffffffffffffffffffffffffffffffffffffffff168173ffffffffffffffffffffffffffffffffffffffff1603612c8c5760006040517f1e4fbdf7000000000000000000000000000000000000000000000000000000008152600401612c8391906141e9565b60405180910390fd5b612c9581613227565b50565b60108054612ca5906144b5565b80601f0160208091040260200160405190810160405280929190818152602001828054612cd1906144b5565b8015612d1e5780601f10612cf357610100808354040283529160200191612d1e565b820191906000526020600020905b815481529060010190602001808311612d0157829003601f168201915b505050505081565b612d2e612dad565b73ffffffffffffffffffffffffffffffffffffffff16612d4c6121bd565b73ffffffffffffffffffffffffffffffffffffffff1614612dab57612d6f612dad565b6040517f118cdaa7000000000000000000000000000000000000000000000000000000008152600401612da291906141e9565b60405180910390fd5b565b600033905090565b612dc283838360016133cf565b505050565b600260065403612e03576040517f3ee5aeb500000000000000000000000000000000000000000000000000000000815260040160405180910390fd5b6002600681905550565b6001600681905550565b6000612e238484612b59565b90507fffffffffffffffffffffffffffffffffffffffffffffffffffffffffffffffff811015612ea65781811015612e96578281836040517ffb8f41b2000000000000000000000000000000000000000000000000000000008152600401612e8d93929190615645565b60405180910390fd5b612ea5848484840360006133cf565b5b50505050565b600073ffffffffffffffffffffffffffffffffffffffff168373ffffffffffffffffffffffffffffffffffffffff1603612f1e5760006040517f96c6fd1e000000000000000000000000000000000000000000000000000000008152600401612f1591906141e9565b60405180910390fd5b600073ffffffffffffffffffffffffffffffffffffffff168273ffffffffffffffffffffffffffffffffffffffff1603612f905760006040517fec442f05000000000000000000000000000000000000000000000000000000008152600401612f8791906141e9565b60405180910390fd5b612f9b8383836135a6565b505050565b6000612fab82611b0d565b905060008103612fbb575061313f565b6000601360008473ffffffffffffffffffffffffffffffffffffffff1673ffffffffffffffffffffffffffffffffffffffff16815260200190815260200160002054670de0b6b3a7640000601254846130149190614b68565b61301e9190614bd9565b613028919061478e565b9050600081111561313c57670de0b6b3a76400006012548361304a9190614b68565b6130549190614bd9565b601360008573ffffffffffffffffffffffffffffffffffffffff1673ffffffffffffffffffffffffffffffffffffffff1681526020019081526020016000208190555080601560008573ffffffffffffffffffffffffffffffffffffffff1673ffffffffffffffffffffffffffffffffffffffff16815260200190815260200160002060008282546130e69190614c0a565b925050819055508273ffffffffffffffffffffffffffffffffffffffff167f8258a59886e03bdb78e5ddb9566b8ad4957a1747e8d15fd0b4a24274f35cf317826040516131339190613d91565b60405180910390a25b50505b50565b61314a613874565b6001600560146101000a81548160ff0219169083151502179055507f62e78cea01bee320cd4e420270b5ea74000d11b0c9f74754ebdbfc544b05a25861318e612dad565b60405161319b91906141e9565b60405180910390a1565b600073ffffffffffffffffffffffffffffffffffffffff168273ffffffffffffffffffffffffffffffffffffffff16036132175760006040517fec442f0500000000000000000000000000000000000000000000000000000000815260040161320e91906141e9565b60405180910390fd5b613223600083836135a6565b5050565b6000600560009054906101000a900473ffffffffffffffffffffffffffffffffffffffff16905081600560006101000a81548173ffffffffffffffffffffffffffffffffffffffff021916908373ffffffffffffffffffffffffffffffffffffffff1602179055508173ffffffffffffffffffffffffffffffffffffffff168173ffffffffffffffffffffffffffffffffffffffff167f8be0079c531659141344cd1fd0a4f28419497f9722a3daafe3b4186f6b6457e060405160405180910390a35050565b613367838473ffffffffffffffffffffffffffffffffffffffff1663a9059cbb858560405160240161332092919061567c565b604051602081830303815290604052915060e01b6020820180517bffffffffffffffffffffffffffffffffffffffffffffffffffffffff83818316178352505050506138b5565b505050565b613374613957565b6000600560146101000a81548160ff0219169083151502179055507f5db9ee0a495bf2e6ff9c91a7834c1ba4fdd244a5e8aa4e537bd38aeae4b073aa6133b8612dad565b6040516133c591906141e9565b60405180910390a1565b600073ffffffffffffffffffffffffffffffffffffffff168473ffffffffffffffffffffffffffffffffffffffff16036134415760006040517fe602df0500000000000000000000000000000000000000000000000000000000815260040161343891906141e9565b60405180910390fd5b600073ffffffffffffffffffffffffffffffffffffffff168373ffffffffffffffffffffffffffffffffffffffff16036134b35760006040517f94280d620000000000000000000000000000000000000000000000000000000081526004016134aa91906141e9565b60405180910390fd5b81600160008673ffffffffffffffffffffffffffffffffffffffff1673ffffffffffffffffffffffffffffffffffffffff16815260200190815260200160002060008573ffffffffffffffffffffffffffffffffffffffff1673ffffffffffffffffffffffffffffffffffffffff1681526020019081526020016000208190555080156135a0578273ffffffffffffffffffffffffffffffffffffffff168473ffffffffffffffffffffffffffffffffffffffff167f8c5be1e5ebec7d5bd14f71427d1e84f3dd0314c0f7b2291e5b200ac8c7c3b925846040516135979190613d91565b60405180910390a35b50505050565b6135ae612dc7565b600073ffffffffffffffffffffffffffffffffffffffff168373ffffffffffffffffffffffffffffffffffffffff16141580156136185750600073ffffffffffffffffffffffffffffffffffffffff168273ffffffffffffffffffffffffffffffffffffffff1614155b156136f657613625611a4a565b15613665576040517f08c379a000000000000000000000000000000000000000000000000000000000815260040161365c906156f1565b60405180910390fd5b61366e83612550565b6136ad576040517f08c379a00000000000000000000000000000000000000000000000000000000081526004016136a49061575d565b60405180910390fd5b6136b682612550565b6136f5576040517f08c379a00000000000000000000000000000000000000000000000000000000081526004016136ec906157c9565b60405180910390fd5b5b600061370184611b0d565b9050600061370e84611b0d565b9050670de0b6b3a7640000601254836137279190614b68565b6137319190614bd9565b601360008773ffffffffffffffffffffffffffffffffffffffff1673ffffffffffffffffffffffffffffffffffffffff16815260200190815260200160002081905550670de0b6b3a76400006012548261378b9190614b68565b6137959190614bd9565b601360008673ffffffffffffffffffffffffffffffffffffffff1673ffffffffffffffffffffffffffffffffffffffff168152602001908152602001600020819055506137e3858585613997565b600073ffffffffffffffffffffffffffffffffffffffff168573ffffffffffffffffffffffffffffffffffffffff161415801561384d5750600073ffffffffffffffffffffffffffffffffffffffff168473ffffffffffffffffffffffffffffffffffffffff1614155b156138655761385b85612fa0565b61386484612fa0565b5b505061386f612e0d565b505050565b61387c611a4a565b156138b3576040517fd93c066500000000000000000000000000000000000000000000000000000000815260040160405180910390fd5b565b600080602060008451602086016000885af1806138d8576040513d6000823e3d81fd5b3d9250600051915050600082146138f357600181141561390f565b60008473ffffffffffffffffffffffffffffffffffffffff163b145b1561395157836040517f5274afe700000000000000000000000000000000000000000000000000000000815260040161394891906141e9565b60405180910390fd5b50505050565b61395f611a4a565b613995576040517f8dfc202b00000000000000000000000000000000000000000000000000000000815260040160405180910390fd5b565b600073ffffffffffffffffffffffffffffffffffffffff168373ffffffffffffffffffffffffffffffffffffffff16036139e95780600260008282546139dd9190614c0a565b92505081905550613abc565b60008060008573ffffffffffffffffffffffffffffffffffffffff1673ffffffffffffffffffffffffffffffffffffffff16815260200190815260200160002054905081811015613a75578381836040517fe450d38c000000000000000000000000000000000000000000000000000000008152600401613a6c93929190615645565b60405180910390fd5b8181036000808673ffffffffffffffffffffffffffffffffffffffff1673ffffffffffffffffffffffffffffffffffffffff16815260200190815260200160002081905550505b600073ffffffffffffffffffffffffffffffffffffffff168273ffffffffffffffffffffffffffffffffffffffff1603613b055780600260008282540392505081905550613b52565b806000808473ffffffffffffffffffffffffffffffffffffffff1673ffffffffffffffffffffffffffffffffffffffff168152602001908152602001600020600082825401925050819055505b8173ffffffffffffffffffffffffffffffffffffffff168373ffffffffffffffffffffffffffffffffffffffff167fddf252ad1be2c89b69c2b068fc378daa952ba7f163c4a11628f55a4df523b3ef83604051613baf9190613d91565b60405180910390a3505050565b600082825260208201905092915050565b7f557365206465706f7369745969656c642829206f72206465706f73697445736360008201527f726f772829000000000000000000000000000000000000000000000000000000602082015250565b6000613c29602583613bbc565b9150613c3482613bcd565b604082019050919050565b60006020820190508181036000830152613c5881613c1c565b9050919050565b7f496e76616c69642063616c6c0000000000000000000000000000000000000000600082015250565b6000613c95600c83613bbc565b9150613ca082613c5f565b602082019050919050565b60006020820190508181036000830152613cc481613c88565b9050919050565b6000604051905090565b600080fd5b600080fd5b6000819050919050565b613cf281613cdf565b8114613cfd57600080fd5b50565b600081359050613d0f81613ce9565b92915050565b600060208284031215613d2b57613d2a613cd5565b5b6000613d3984828501613d00565b91505092915050565b60008115159050919050565b613d5781613d42565b82525050565b6000602082019050613d726000830184613d4e565b92915050565b6000819050919050565b613d8b81613d78565b82525050565b6000602082019050613da66000830184613d82565b92915050565b600081519050919050565b60005b83811015613dd5578082015181840152602081019050613dba565b60008484015250505050565b6000601f19601f8301169050919050565b6000613dfd82613dac565b613e078185613bbc565b9350613e17818560208601613db7565b613e2081613de1565b840191505092915050565b60006020820190508181036000830152613e458184613df2565b905092915050565b600073ffffffffffffffffffffffffffffffffffffffff82169050919050565b6000613e7882613e4d565b9050919050565b613e8881613e6d565b8114613e9357600080fd5b50565b600081359050613ea581613e7f565b92915050565b600060208284031215613ec157613ec0613cd5565b5b6000613ecf84828501613e96565b91505092915050565b6000608082019050613eed6000830187613d82565b613efa6020830186613d82565b613f076040830185613d82565b613f146060830184613d4e565b95945050505050565b7f4e487b7100000000000000000000000000000000000000000000000000000000600052602160045260246000fd5b60038110613f5d57613f5c613f1d565b5b50565b6000819050613f6e82613f4c565b919050565b6000613f7e82613f60565b9050919050565b613f8e81613f73565b82525050565b6000608082019050613fa96000830187613f85565b613fb66020830186613d82565b613fc36040830185613d82565b613fd06060830184613d82565b95945050505050565b613fe281613d78565b8114613fed57600080fd5b50565b600081359050613fff81613fd9565b92915050565b6000806040838503121561401c5761401b613cd5565b5b600061402a85828601613e96565b925050602061403b85828601613ff0565b9150509250929050565b600060608201905061405a6000830186613d4e565b6140676020830185613d82565b81810360408301526140798184613df2565b9050949350505050565b60006020820190506140986000830184613f85565b92915050565b6000806000606084860312156140b7576140b6613cd5565b5b60006140c586828701613e96565b93505060206140d686828701613e96565b92505060406140e786828701613ff0565b9150509250925092565b600060ff82169050919050565b614107816140f1565b82525050565b600060208201905061412260008301846140fe565b92915050565b600080fd5b600080fd5b600080fd5b60008083601f84011261414d5761414c614128565b5b8235905067ffffffffffffffff81111561416a5761416961412d565b5b60208301915083602082028301111561418657614185614132565b5b9250929050565b600080602083850312156141a4576141a3613cd5565b5b600083013567ffffffffffffffff8111156141c2576141c1613cda565b5b6141ce85828601614137565b92509250509250929050565b6141e381613e6d565b82525050565b60006020820190506141fe60008301846141da565b92915050565b60006020828403121561421a57614219613cd5565b5b600061422884828501613ff0565b91505092915050565b6000806040838503121561424857614247613cd5565b5b600061425685828601613e96565b925050602061426785828601613d00565b9150509250929050565b600080fd5b7f4e487b7100000000000000000000000000000000000000000000000000000000600052604160045260246000fd5b6142ae82613de1565b810181811067ffffffffffffffff821117156142cd576142cc614276565b5b80604052505050565b60006142e0613ccb565b90506142ec82826142a5565b919050565b600067ffffffffffffffff82111561430c5761430b614276565b5b61431582613de1565b9050602081019050919050565b82818337600083830152505050565b600061434461433f846142f1565b6142d6565b9050828152602081018484840111156143605761435f614271565b5b61436b848285614322565b509392505050565b600082601f83011261438857614387614128565b5b8135614398848260208601614331565b91505092915050565b600080604083850312156143b8576143b7613cd5565b5b60006143c685828601613d00565b925050602083013567ffffffffffffffff8111156143e7576143e6613cda565b5b6143f385828601614373565b9150509250929050565b60006020828403121561441357614412613cd5565b5b600082013567ffffffffffffffff81111561443157614430613cda565b5b61443d84828501614373565b91505092915050565b6000806040838503121561445d5761445c613cd5565b5b600061446b85828601613e96565b925050602061447c85828601613e96565b9150509250929050565b7f4e487b7100000000000000000000000000000000000000000000000000000000600052602260045260246000fd5b600060028204905060018216806144cd57607f821691505b6020821081036144e0576144df614486565b5b50919050565b7f457363726f77206e6f7420696e2066756e64696e672073746174650000000000600082015250565b600061451c601b83613bbc565b9150614527826144e6565b602082019050919050565b6000602082019050818103600083015261454b8161450f565b9050919050565b7f4e6f2070656e64696e672063616e63656c6c6174696f6e000000000000000000600082015250565b6000614588601783613bbc565b915061459382614552565b602082019050919050565b600060208201905081810360008301526145b78161457b565b9050919050565b7f54696d656c6f636b206e6f742065787069726564000000000000000000000000600082015250565b60006145f4601483613bbc565b91506145ff826145be565b602082019050919050565b60006020820190508181036000830152614623816145e7565b9050919050565b7f496e76616c696420737461746500000000000000000000000000000000000000600082015250565b6000614660600d83613bbc565b915061466b8261462a565b602082019050919050565b6000602082019050818103600083015261468f81614653565b9050919050565b60008190508160005260206000209050919050565b600081546146b8816144b5565b6146c28186613bbc565b945060018216600081146146dd57600181146146f357614726565b60ff198316865281151560200286019350614726565b6146fc85614696565b60005b8381101561471e578154818901526001820191506020810190506146ff565b808801955050505b50505092915050565b60006040820190506147446000830185613d82565b818103602083015261475681846146ab565b90509392505050565b7f4e487b7100000000000000000000000000000000000000000000000000000000600052601160045260246000fd5b600061479982613d78565b91506147a483613d78565b92508282039050818111156147bc576147bb61475f565b5b92915050565b7f457363726f77206e6f742063616e63656c6c6564000000000000000000000000600082015250565b60006147f8601483613bbc565b9150614803826147c2565b602082019050919050565b60006020820190508181036000830152614827816147eb565b9050919050565b7f41646472657373206e6f7420636f6d706c69616e740000000000000000000000600082015250565b6000614864601583613bbc565b915061486f8261482e565b602082019050919050565b6000602082019050818103600083015261489381614857565b9050919050565b7f4e6f7468696e6720746f20726566756e64000000000000000000000000000000600082015250565b60006148d0601183613bbc565b91506148db8261489a565b602082019050919050565b600060208201905081810360008301526148ff816148c3565b9050919050565b600081905092915050565b50565b6000614921600083614906565b915061492c82614911565b600082019050919050565b600061494282614914565b9150819050919050565b7f526566756e64206661696c656400000000000000000000000000000000000000600082015250565b6000614982600d83613bbc565b915061498d8261494c565b602082019050919050565b600060208201905081810360008301526149b181614975565b9050919050565b7f4e6f207969656c6420746f20636c61696d000000000000000000000000000000600082015250565b60006149ee601183613bbc565b91506149f9826149b8565b602082019050919050565b60006020820190508181036000830152614a1d816149e1565b9050919050565b7f5969656c6420636c61696d206661696c65640000000000000000000000000000600082015250565b6000614a5a601283613bbc565b9150614a6582614a24565b602082019050919050565b60006020820190508181036000830152614a8981614a4d565b9050919050565b7f4e6f20746f6b656e73206d696e74656420796574000000000000000000000000600082015250565b6000614ac6601483613bbc565b9150614ad182614a90565b602082019050919050565b60006020820190508181036000830152614af581614ab9565b9050919050565b7f5a65726f207969656c6400000000000000000000000000000000000000000000600082015250565b6000614b32600a83613bbc565b9150614b3d82614afc565b602082019050919050565b60006020820190508181036000830152614b6181614b25565b9050919050565b6000614b7382613d78565b9150614b7e83613d78565b9250828202614b8c81613d78565b91508282048414831517614ba357614ba261475f565b5b5092915050565b7f4e487b7100000000000000000000000000000000000000000000000000000000600052601260045260246000fd5b6000614be482613d78565b9150614bef83613d78565b925082614bff57614bfe614baa565b5b828204905092915050565b6000614c1582613d78565b9150614c2083613d78565b9250828201905080821115614c3857614c3761475f565b5b92915050565b6000604082019050614c536000830185613d82565b614c606020830184613d82565b9392505050565b7f457363726f77206e6f742066696e616c697a6564000000000000000000000000600082015250565b6000614c9d601483613bbc565b9150614ca882614c67565b602082019050919050565b60006020820190508181036000830152614ccc81614c90565b9050919050565b7f4e6f206465706f73697473000000000000000000000000000000000000000000600082015250565b6000614d09600b83613bbc565b9150614d1482614cd3565b602082019050919050565b60006020820190508181036000830152614d3881614cfc565b9050919050565b7f496e76616c696420746f74616c20726169736564000000000000000000000000600082015250565b6000614d75601483613bbc565b9150614d8082614d3f565b602082019050919050565b60006020820190508181036000830152614da481614d68565b9050919050565b7f4465706f73697420746f6f20736d616c6c20666f7220616e7920746f6b656e73600082015250565b6000614de1602083613bbc565b9150614dec82614dab565b602082019050919050565b60006020820190508181036000830152614e1081614dd4565b9050919050565b7f4e487b7100000000000000000000000000000000000000000000000000000000600052603260045260246000fd5b6000614e5182613d78565b91507fffffffffffffffffffffffffffffffffffffffffffffffffffffffffffffffff8203614e8357614e8261475f565b5b600182019050919050565b7f496e76616c696420746f6b656e00000000000000000000000000000000000000600082015250565b6000614ec4600d83613bbc565b9150614ecf82614e8e565b602082019050919050565b60006020820190508181036000830152614ef381614eb7565b9050919050565b7f43616e6e6f74207265636f7665722070726f706572747920746f6b656e000000600082015250565b6000614f30601d83613bbc565b9150614f3b82614efa565b602082019050919050565b60006020820190508181036000830152614f5f81614f23565b9050919050565b7f4361702065786365656465640000000000000000000000000000000000000000600082015250565b6000614f9c600c83613bbc565b9150614fa782614f66565b602082019050919050565b60006020820190508181036000830152614fcb81614f8f565b9050919050565b7f5a65726f206465706f7369740000000000000000000000000000000000000000600082015250565b6000615008600c83613bbc565b915061501382614fd2565b602082019050919050565b6000602082019050818103600083015261503781614ffb565b9050919050565b7f4465706f7369742062656c6f77206d696e696d756d20666f7220746f6b656e73600082015250565b6000615074602083613bbc565b915061507f8261503e565b602082019050919050565b600060208201905081810360008301526150a381615067565b9050919050565b7f496e76616c69642077616c6c6574000000000000000000000000000000000000600082015250565b60006150e0600e83613bbc565b91506150eb826150aa565b602082019050919050565b6000602082019050818103600083015261510f816150d3565b9050919050565b7f496e76616c696420686173680000000000000000000000000000000000000000600082015250565b600061514c600c83613bbc565b915061515782615116565b602082019050919050565b6000602082019050818103600083015261517b8161513f565b9050919050565b7f4e6f2066756e6473207261697365640000000000000000000000000000000000600082015250565b60006151b8600f83613bbc565b91506151c382615182565b602082019050919050565b600060208201905081810360008301526151e7816151ab565b9050919050565b7f46756e642072656c65617365206661696c656400000000000000000000000000600082015250565b6000615224601383613bbc565b915061522f826151ee565b602082019050919050565b6000602082019050818103600083015261525381615217565b9050919050565b7f43616e63656c6c6174696f6e20616c72656164792070656e64696e6700000000600082015250565b6000615290601c83613bbc565b915061529b8261525a565b602082019050919050565b600060208201905081810360008301526152bf81615283565b9050919050565b60006020601f8301049050919050565b600082821b905092915050565b6000600883026153137fffffffffffffffffffffffffffffffffffffffffffffffffffffffffffffffff826152d6565b61531d86836152d6565b95508019841693508086168417925050509392505050565b6000819050919050565b600061535a61535561535084613d78565b615335565b613d78565b9050919050565b6000819050919050565b6153748361533f565b61538861538082615361565b8484546152e3565b825550505050565b600090565b61539d615390565b6153a881848461536b565b505050565b5b818110156153cc576153c1600082615395565b6001810190506153ae565b5050565b601f821115615411576153e281614696565b6153eb846152c6565b810160208510156153fa578190505b61540e615406856152c6565b8301826153ad565b50505b505050565b600082821c905092915050565b600061543460001984600802615416565b1980831691505092915050565b600061544d8383615423565b9150826002028217905092915050565b61546682613dac565b67ffffffffffffffff81111561547f5761547e614276565b5b61548982546144b5565b6154948282856153d0565b600060209050601f8311600181146154c757600084156154b5578287015190505b6154bf8582615441565b865550615527565b601f1984166154d586614696565b60005b828110156154fd578489015182556001820191506020850194506020810190506154d8565b8683101561551a5784890151615516601f891682615423565b8355505b6001600288020188555050505b505050505050565b60006060820190506155446000830186613d82565b81810360208301526155568185613df2565b90506155656040830184613d82565b949350505050565b7f496e73756666696369656e742062616c616e6365000000000000000000000000600082015250565b60006155a3601483613bbc565b91506155ae8261556d565b602082019050919050565b600060208201905081810360008301526155d281615596565b9050919050565b7f455448207265636f76657279206661696c656400000000000000000000000000600082015250565b600061560f601383613bbc565b915061561a826155d9565b602082019050919050565b6000602082019050818103600083015261563e81615602565b9050919050565b600060608201905061565a60008301866141da565b6156676020830185613d82565b6156746040830184613d82565b949350505050565b600060408201905061569160008301856141da565b61569e6020830184613d82565b9392505050565b7f436f6e7472616374206973207061757365640000000000000000000000000000600082015250565b60006156db601283613bbc565b91506156e6826156a5565b602082019050919050565b6000602082019050818103600083015261570a816156ce565b9050919050565b7f53656e646572206e6f7420636f6d706c69616e74000000000000000000000000600082015250565b6000615747601483613bbc565b915061575282615711565b602082019050919050565b600060208201905081810360008301526157768161573a565b9050919050565b7f5265636569766572206e6f7420636f6d706c69616e7400000000000000000000600082015250565b60006157b3601683613bbc565b91506157be8261577d565b602082019050919050565b600060208201905081810360008301526157e2816157a6565b905091905056fea264697066735822122083300c9dc49e0b4aea564e13ed455a5cf963c68a62e3752dcbc425ba3550cad364736f6c63430008140033",
  "linkReferences": {},
  "deployedLinkReferences": {}
}